{
  "_format": "hh-sol-artifact-1",
  "contractName": "Warranty",
  "sourceName": "contracts/Warranty.sol",
  "abi": [
    {
      "inputs": [],
      "stateMutability": "nonpayable",
      "type": "constructor"
    },
    {
      "anonymous": false,
      "inputs": [
        {
          "indexed": true,
          "internalType": "address",
          "name": "owner",
          "type": "address"
        },
        {
          "indexed": true,
          "internalType": "address",
          "name": "approved",
          "type": "address"
        },
        {
          "indexed": true,
          "internalType": "uint256",
          "name": "tokenId",
          "type": "uint256"
        }
      ],
      "name": "Approval",
      "type": "event"
    },
    {
      "anonymous": false,
      "inputs": [
        {
          "indexed": true,
          "internalType": "address",
          "name": "owner",
          "type": "address"
        },
        {
          "indexed": true,
          "internalType": "address",
          "name": "operator",
          "type": "address"
        },
        {
          "indexed": false,
          "internalType": "bool",
          "name": "approved",
          "type": "bool"
        }
      ],
      "name": "ApprovalForAll",
      "type": "event"
    },
    {
      "anonymous": false,
      "inputs": [
        {
          "indexed": true,
          "internalType": "address",
          "name": "previousOwner",
          "type": "address"
        },
        {
          "indexed": true,
          "internalType": "address",
          "name": "newOwner",
          "type": "address"
        }
      ],
      "name": "OwnershipTransferred",
      "type": "event"
    },
    {
      "anonymous": false,
      "inputs": [
        {
          "indexed": true,
          "internalType": "address",
          "name": "from",
          "type": "address"
        },
        {
          "indexed": true,
          "internalType": "address",
          "name": "to",
          "type": "address"
        },
        {
          "indexed": true,
          "internalType": "uint256",
          "name": "tokenId",
          "type": "uint256"
        }
      ],
      "name": "Transfer",
      "type": "event"
    },
    {
      "inputs": [
        {
          "internalType": "address",
          "name": "to",
          "type": "address"
        },
        {
          "internalType": "uint256",
          "name": "tokenId",
          "type": "uint256"
        }
      ],
      "name": "approve",
      "outputs": [],
      "stateMutability": "nonpayable",
      "type": "function"
    },
    {
      "inputs": [
        {
          "internalType": "address",
          "name": "owner",
          "type": "address"
        }
      ],
      "name": "balanceOf",
      "outputs": [
        {
          "internalType": "uint256",
          "name": "",
          "type": "uint256"
        }
      ],
      "stateMutability": "view",
      "type": "function"
    },
    {
      "inputs": [
        {
          "components": [
            {
              "internalType": "string",
              "name": "_itemSerialId",
              "type": "string"
            },
            {
              "internalType": "string",
              "name": "_itemOwnerName",
              "type": "string"
            },
            {
              "internalType": "uint8",
              "name": "_itemWarrantyDuration",
              "type": "uint8"
            }
          ],
          "internalType": "struct Warranty.Items[]",
          "name": "items",
          "type": "tuple[]"
        },
        {
          "internalType": "address",
          "name": "ownerAddress",
          "type": "address"
        }
      ],
      "name": "createProduct",
      "outputs": [],
      "stateMutability": "nonpayable",
      "type": "function"
    },
    {
      "inputs": [
        {
          "internalType": "uint256",
          "name": "nftId_",
          "type": "uint256"
        }
      ],
      "name": "decayNft",
      "outputs": [],
      "stateMutability": "nonpayable",
      "type": "function"
    },
    {
      "inputs": [
        {
          "internalType": "uint256",
          "name": "tokenId",
          "type": "uint256"
        }
      ],
      "name": "getApproved",
      "outputs": [
        {
          "internalType": "address",
          "name": "",
          "type": "address"
        }
      ],
      "stateMutability": "view",
      "type": "function"
    },
    {
      "inputs": [
        {
          "internalType": "address",
          "name": "addr",
          "type": "address"
        }
      ],
      "name": "getIds",
      "outputs": [
        {
          "internalType": "uint256[]",
          "name": "",
          "type": "uint256[]"
        }
      ],
      "stateMutability": "view",
      "type": "function"
    },
    {
      "inputs": [
        {
          "internalType": "uint256",
          "name": "nftId_",
          "type": "uint256"
        }
      ],
      "name": "getProductDetails",
      "outputs": [
        {
          "components": [
            {
              "internalType": "string",
              "name": "_serialId",
              "type": "string"
            },
            {
              "internalType": "string",
              "name": "_ownerName",
              "type": "string"
            },
            {
              "internalType": "uint8",
              "name": "_warrantyDuration",
              "type": "uint8"
            },
            {
              "internalType": "uint256",
              "name": "_buyingTime",
              "type": "uint256"
            }
          ],
          "internalType": "struct Warranty.Product",
          "name": "",
          "type": "tuple"
        }
      ],
      "stateMutability": "view",
      "type": "function"
    },
    {
      "inputs": [
        {
          "internalType": "address",
          "name": "owner",
          "type": "address"
        },
        {
          "internalType": "address",
          "name": "operator",
          "type": "address"
        }
      ],
      "name": "isApprovedForAll",
      "outputs": [
        {
          "internalType": "bool",
          "name": "",
          "type": "bool"
        }
      ],
      "stateMutability": "view",
      "type": "function"
    },
    {
      "inputs": [
        {
          "internalType": "uint256",
          "name": "nftId_",
          "type": "uint256"
        }
      ],
      "name": "isInWarrantyPeriod",
      "outputs": [
        {
          "internalType": "bool",
          "name": "",
          "type": "bool"
        }
      ],
      "stateMutability": "view",
      "type": "function"
    },
    {
      "inputs": [],
      "name": "name",
      "outputs": [
        {
          "internalType": "string",
          "name": "",
          "type": "string"
        }
      ],
      "stateMutability": "view",
      "type": "function"
    },
    {
      "inputs": [],
      "name": "nftId",
      "outputs": [
        {
          "internalType": "uint256",
          "name": "",
          "type": "uint256"
        }
      ],
      "stateMutability": "view",
      "type": "function"
    },
    {
      "inputs": [],
      "name": "owner",
      "outputs": [
        {
          "internalType": "address",
          "name": "",
          "type": "address"
        }
      ],
      "stateMutability": "view",
      "type": "function"
    },
    {
      "inputs": [
        {
          "internalType": "uint256",
          "name": "tokenId",
          "type": "uint256"
        }
      ],
      "name": "ownerOf",
      "outputs": [
        {
          "internalType": "address",
          "name": "",
          "type": "address"
        }
      ],
      "stateMutability": "view",
      "type": "function"
    },
    {
      "inputs": [],
      "name": "renounceOwnership",
      "outputs": [],
      "stateMutability": "nonpayable",
      "type": "function"
    },
    {
      "inputs": [
        {
          "internalType": "address",
          "name": "from",
          "type": "address"
        },
        {
          "internalType": "address",
          "name": "to",
          "type": "address"
        },
        {
          "internalType": "uint256",
          "name": "tokenId",
          "type": "uint256"
        }
      ],
      "name": "safeTransferFrom",
      "outputs": [],
      "stateMutability": "nonpayable",
      "type": "function"
    },
    {
      "inputs": [
        {
          "internalType": "address",
          "name": "from",
          "type": "address"
        },
        {
          "internalType": "address",
          "name": "to",
          "type": "address"
        },
        {
          "internalType": "uint256",
          "name": "tokenId",
          "type": "uint256"
        },
        {
          "internalType": "bytes",
          "name": "data",
          "type": "bytes"
        }
      ],
      "name": "safeTransferFrom",
      "outputs": [],
      "stateMutability": "nonpayable",
      "type": "function"
    },
    {
      "inputs": [
        {
          "internalType": "address",
          "name": "operator",
          "type": "address"
        },
        {
          "internalType": "bool",
          "name": "approved",
          "type": "bool"
        }
      ],
      "name": "setApprovalForAll",
      "outputs": [],
      "stateMutability": "nonpayable",
      "type": "function"
    },
    {
      "inputs": [
        {
          "internalType": "bytes4",
          "name": "interfaceId",
          "type": "bytes4"
        }
      ],
      "name": "supportsInterface",
      "outputs": [
        {
          "internalType": "bool",
          "name": "",
          "type": "bool"
        }
      ],
      "stateMutability": "view",
      "type": "function"
    },
    {
      "inputs": [],
      "name": "symbol",
      "outputs": [
        {
          "internalType": "string",
          "name": "",
          "type": "string"
        }
      ],
      "stateMutability": "view",
      "type": "function"
    },
    {
      "inputs": [
        {
          "internalType": "uint256",
          "name": "tokenId",
          "type": "uint256"
        }
      ],
      "name": "tokenURI",
      "outputs": [
        {
          "internalType": "string",
          "name": "",
          "type": "string"
        }
      ],
      "stateMutability": "view",
      "type": "function"
    },
    {
      "inputs": [
        {
          "internalType": "address",
          "name": "from",
          "type": "address"
        },
        {
          "internalType": "address",
          "name": "to",
          "type": "address"
        },
        {
          "internalType": "uint256",
          "name": "tokenId",
          "type": "uint256"
        }
      ],
      "name": "transferFrom",
      "outputs": [],
      "stateMutability": "nonpayable",
      "type": "function"
    },
    {
      "inputs": [
        {
          "internalType": "address",
          "name": "newOwner",
          "type": "address"
        }
      ],
      "name": "transferOwnership",
      "outputs": [],
      "stateMutability": "nonpayable",
      "type": "function"
    },
    {
      "inputs": [
        {
          "internalType": "address",
          "name": "from",
          "type": "address"
        },
        {
          "internalType": "address",
          "name": "to",
          "type": "address"
        },
        {
          "internalType": "uint256",
          "name": "tokenId",
          "type": "uint256"
        },
        {
          "internalType": "string",
          "name": "receiverName",
          "type": "string"
        }
      ],
      "name": "transferWarrantyOwnership",
      "outputs": [],
      "stateMutability": "nonpayable",
      "type": "function"
    }
  ],
  "bytecode": "0x60806040523480156200001157600080fd5b506040518060400160405280600a81526020017f57617272616e74696573000000000000000000000000000000000000000000008152506040518060400160405280600381526020017f5754530000000000000000000000000000000000000000000000000000000000815250816000908051906020019062000096929190620001d3565b508060019080519060200190620000af929190620001d3565b505050620000d2620000c6620000ef60201b60201c565b620000f760201b60201c565b620000e96007620001bd60201b620014b71760201c565b620002e8565b600033905090565b6000600660009054906101000a900473ffffffffffffffffffffffffffffffffffffffff16905081600660006101000a81548173ffffffffffffffffffffffffffffffffffffffff021916908373ffffffffffffffffffffffffffffffffffffffff1602179055508173ffffffffffffffffffffffffffffffffffffffff168173ffffffffffffffffffffffffffffffffffffffff167f8be0079c531659141344cd1fd0a4f28419497f9722a3daafe3b4186f6b6457e060405160405180910390a35050565b6001816000016000828254019250508190555050565b828054620001e19062000283565b90600052602060002090601f01602090048101928262000205576000855562000251565b82601f106200022057805160ff191683800117855562000251565b8280016001018555821562000251579182015b828111156200025057825182559160200191906001019062000233565b5b50905062000260919062000264565b5090565b5b808211156200027f57600081600090555060010162000265565b5090565b600060028204905060018216806200029c57607f821691505b60208210811415620002b357620002b2620002b9565b5b50919050565b7f4e487b7100000000000000000000000000000000000000000000000000000000600052602260045260246000fd5b613b3e80620002f86000396000f3fe608060405234801561001057600080fd5b506004361061014d5760003560e01c8063715018a6116100c3578063b9b1e23a1161007c578063b9b1e23a146103ae578063c6bc5182146103ca578063c87b56dd146103e8578063e985e9c514610418578063f2fde38b14610448578063f4c60d5c146104645761014d565b8063715018a6146103145780637e68b1491461031e5780638da5cb5b1461033a57806395d89b4114610358578063a22cb46514610376578063b88d4fde146103925761014d565b80632671b0d8116101155780632671b0d814610208578063427a76081461023857806342842e0e146102685780636352211e146102845780636813b53b146102b457806370a08231146102e45761014d565b806301ffc9a71461015257806306fdde0314610182578063081812fc146101a0578063095ea7b3146101d057806323b872dd146101ec575b600080fd5b61016c60048036038101906101679190612b00565b610480565b604051610179919061303c565b60405180910390f35b61018a610562565b6040516101979190613057565b60405180910390f35b6101ba60048036038101906101b59190612b52565b6105f4565b6040516101c79190612fb3565b60405180910390f35b6101ea60048036038101906101e59190612a70565b61063a565b005b610206600480360381019061020191906128ef565b610752565b005b610222600480360381019061021d919061288a565b6107b2565b60405161022f919061301a565b60405180910390f35b610252600480360381019061024d9190612b52565b610849565b60405161025f919061303c565b60405180910390f35b610282600480360381019061027d91906128ef565b610909565b005b61029e60048036038101906102999190612b52565b610929565b6040516102ab9190612fb3565b60405180910390f35b6102ce60048036038101906102c99190612b52565b6109db565b6040516102db9190613259565b60405180910390f35b6102fe60048036038101906102f9919061288a565b610bab565b60405161030b919061327b565b60405180910390f35b61031c610c63565b005b61033860048036038101906103339190612b52565b610c77565b005b610342610eb0565b60405161034f9190612fb3565b60405180910390f35b610360610eda565b60405161036d9190613057565b60405180910390f35b610390600480360381019061038b9190612a34565b610f6c565b005b6103ac60048036038101906103a7919061293e565b610f82565b005b6103c860048036038101906103c391906129b9565b610fe4565b005b6103d2611212565b6040516103df919061327b565b60405180910390f35b61040260048036038101906103fd9190612b52565b611218565b60405161040f9190613057565b60405180910390f35b610432600480360381019061042d91906128b3565b611280565b60405161043f919061303c565b60405180910390f35b610462600480360381019061045d919061288a565b611314565b005b61047e60048036038101906104799190612aac565b611398565b005b60007f80ac58cd000000000000000000000000000000000000000000000000000000007bffffffffffffffffffffffffffffffffffffffffffffffffffffffff1916827bffffffffffffffffffffffffffffffffffffffffffffffffffffffff1916148061054b57507f5b5e139f000000000000000000000000000000000000000000000000000000007bffffffffffffffffffffffffffffffffffffffffffffffffffffffff1916827bffffffffffffffffffffffffffffffffffffffffffffffffffffffff1916145b8061055b575061055a826114cd565b5b9050919050565b60606000805461057190613554565b80601f016020809104026020016040519081016040528092919081815260200182805461059d90613554565b80156105ea5780601f106105bf576101008083540402835291602001916105ea565b820191906000526020600020905b8154815290600101906020018083116105cd57829003601f168201915b5050505050905090565b60006105ff82611537565b6004600083815260200190815260200160002060009054906101000a900473ffffffffffffffffffffffffffffffffffffffff169050919050565b600061064582610929565b90508073ffffffffffffffffffffffffffffffffffffffff168373ffffffffffffffffffffffffffffffffffffffff1614156106b6576040517f08c379a00000000000000000000000000000000000000000000000000000000081526004016106ad90613219565b60405180910390fd5b8073ffffffffffffffffffffffffffffffffffffffff166106d5611582565b73ffffffffffffffffffffffffffffffffffffffff1614806107045750610703816106fe611582565b611280565b5b610743576040517f08c379a000000000000000000000000000000000000000000000000000000000815260040161073a90613199565b60405180910390fd5b61074d838361158a565b505050565b61076361075d611582565b82611643565b6107a2576040517f08c379a000000000000000000000000000000000000000000000000000000000815260040161079990613239565b60405180910390fd5b6107ad8383836116d8565b505050565b6060600860008373ffffffffffffffffffffffffffffffffffffffff1673ffffffffffffffffffffffffffffffffffffffff16815260200190815260200160002080548060200260200160405190810160405280929190818152602001828054801561083d57602002820191906000526020600020905b815481526020019060010190808311610829575b50505050509050919050565b6000610855600761193f565b82108015610864575060008214155b6108a3576040517f08c379a000000000000000000000000000000000000000000000000000000000815260040161089a90613179565b60405180910390fd5b600061016d6018603c806108b6876109db565b60600151426108c5919061345d565b6108cf919061342c565b6108d9919061342c565b6108e3919061342c565b6108ed919061342c565b9050806108f9846109db565b6040015160ff1611915050919050565b61092483838360405180602001604052806000815250610f82565b505050565b6000806002600084815260200190815260200160002060009054906101000a900473ffffffffffffffffffffffffffffffffffffffff169050600073ffffffffffffffffffffffffffffffffffffffff168173ffffffffffffffffffffffffffffffffffffffff1614156109d2576040517f08c379a00000000000000000000000000000000000000000000000000000000081526004016109c9906131f9565b60405180910390fd5b80915050919050565b6109e3612517565b6109ed600761193f565b821080156109fc575060008214155b610a3b576040517f08c379a0000000000000000000000000000000000000000000000000000000008152600401610a3290613179565b60405180910390fd5b60096000838152602001908152602001600020604051806080016040529081600082018054610a6990613554565b80601f0160208091040260200160405190810160405280929190818152602001828054610a9590613554565b8015610ae25780601f10610ab757610100808354040283529160200191610ae2565b820191906000526020600020905b815481529060010190602001808311610ac557829003601f168201915b50505050508152602001600182018054610afb90613554565b80601f0160208091040260200160405190810160405280929190818152602001828054610b2790613554565b8015610b745780601f10610b4957610100808354040283529160200191610b74565b820191906000526020600020905b815481529060010190602001808311610b5757829003601f168201915b505050505081526020016002820160009054906101000a900460ff1660ff1660ff1681526020016003820154815250509050919050565b60008073ffffffffffffffffffffffffffffffffffffffff168273ffffffffffffffffffffffffffffffffffffffff161415610c1c576040517f08c379a0000000000000000000000000000000000000000000000000000000008152600401610c1390613159565b60405180910390fd5b600360008373ffffffffffffffffffffffffffffffffffffffff1673ffffffffffffffffffffffffffffffffffffffff168152602001908152602001600020549050919050565b610c6b61194d565b610c7560006119cb565b565b610c7f61194d565b610c8881610849565b15610cc8576040517f08c379a0000000000000000000000000000000000000000000000000000000008152600401610cbf906130f9565b60405180910390fd5b6000610cd382610929565b90506000600860008373ffffffffffffffffffffffffffffffffffffffff1673ffffffffffffffffffffffffffffffffffffffff16815260200190815260200160002080549050905060005b81811015610e4f5783600860008573ffffffffffffffffffffffffffffffffffffffff1673ffffffffffffffffffffffffffffffffffffffff1681526020019081526020016000208281548110610d9f577f4e487b7100000000000000000000000000000000000000000000000000000000600052603260045260246000fd5b90600052602060002001541415610e3c576000600860008573ffffffffffffffffffffffffffffffffffffffff1673ffffffffffffffffffffffffffffffffffffffff1681526020019081526020016000208281548110610e29577f4e487b7100000000000000000000000000000000000000000000000000000000600052603260045260246000fd5b9060005260206000200181905550610e4f565b8080610e47906135b7565b915050610d1f565b506009600084815260200190815260200160002060008082016000610e749190612542565b600182016000610e849190612542565b6002820160006101000a81549060ff021916905560038201600090555050610eab83611a91565b505050565b6000600660009054906101000a900473ffffffffffffffffffffffffffffffffffffffff16905090565b606060018054610ee990613554565b80601f0160208091040260200160405190810160405280929190818152602001828054610f1590613554565b8015610f625780601f10610f3757610100808354040283529160200191610f62565b820191906000526020600020905b815481529060010190602001808311610f4557829003601f168201915b5050505050905090565b610f7e610f77611582565b8383611bae565b5050565b610f93610f8d611582565b83611643565b610fd2576040517f08c379a0000000000000000000000000000000000000000000000000000000008152600401610fc990613239565b60405180910390fd5b610fde84848484611d1b565b50505050565b610fff84848460405180602001604052806000815250610f82565b6000600860008673ffffffffffffffffffffffffffffffffffffffff1673ffffffffffffffffffffffffffffffffffffffff16815260200190815260200160002080549050905060005b818110156111795783600860008873ffffffffffffffffffffffffffffffffffffffff1673ffffffffffffffffffffffffffffffffffffffff16815260200190815260200160002082815481106110c9577f4e487b7100000000000000000000000000000000000000000000000000000000600052603260045260246000fd5b90600052602060002001541415611166576000600860008873ffffffffffffffffffffffffffffffffffffffff1673ffffffffffffffffffffffffffffffffffffffff1681526020019081526020016000208281548110611153577f4e487b7100000000000000000000000000000000000000000000000000000000600052603260045260246000fd5b9060005260206000200181905550611179565b8080611171906135b7565b915050611049565b50600860008573ffffffffffffffffffffffffffffffffffffffff1673ffffffffffffffffffffffffffffffffffffffff1681526020019081526020016000208390806001815401808255809150506001900390600052602060002001600090919091909150558160096000858152602001908152602001600020600101908051906020019061120a929190612582565b505050505050565b600a5481565b606061122382611537565b600061122d611d77565b9050600081511161124d5760405180602001604052806000815250611278565b8061125784611d8e565b604051602001611268929190612f8f565b6040516020818303038152906040525b915050919050565b6000600560008473ffffffffffffffffffffffffffffffffffffffff1673ffffffffffffffffffffffffffffffffffffffff16815260200190815260200160002060008373ffffffffffffffffffffffffffffffffffffffff1673ffffffffffffffffffffffffffffffffffffffff16815260200190815260200160002060009054906101000a900460ff16905092915050565b61131c61194d565b600073ffffffffffffffffffffffffffffffffffffffff168173ffffffffffffffffffffffffffffffffffffffff16141561138c576040517f08c379a000000000000000000000000000000000000000000000000000000000815260040161138390613099565b60405180910390fd5b611395816119cb565b50565b60008251905060005b818110156114b1576114808482815181106113e5577f4e487b7100000000000000000000000000000000000000000000000000000000600052603260045260246000fd5b60200260200101516000015185838151811061142a577f4e487b7100000000000000000000000000000000000000000000000000000000600052603260045260246000fd5b60200260200101516020015186848151811061146f577f4e487b7100000000000000000000000000000000000000000000000000000000600052603260045260246000fd5b602002602001015160400151611f3b565b600a8190555061149283600a5461202a565b61149e83600a54612094565b80806114a9906135b7565b9150506113a1565b50505050565b6001816000016000828254019250508190555050565b60007f01ffc9a7000000000000000000000000000000000000000000000000000000007bffffffffffffffffffffffffffffffffffffffffffffffffffffffff1916827bffffffffffffffffffffffffffffffffffffffffffffffffffffffff1916149050919050565b611540816120b2565b61157f576040517f08c379a0000000000000000000000000000000000000000000000000000000008152600401611576906131f9565b60405180910390fd5b50565b600033905090565b816004600083815260200190815260200160002060006101000a81548173ffffffffffffffffffffffffffffffffffffffff021916908373ffffffffffffffffffffffffffffffffffffffff160217905550808273ffffffffffffffffffffffffffffffffffffffff166115fd83610929565b73ffffffffffffffffffffffffffffffffffffffff167f8c5be1e5ebec7d5bd14f71427d1e84f3dd0314c0f7b2291e5b200ac8c7c3b92560405160405180910390a45050565b60008061164f83610929565b90508073ffffffffffffffffffffffffffffffffffffffff168473ffffffffffffffffffffffffffffffffffffffff16148061169157506116908185611280565b5b806116cf57508373ffffffffffffffffffffffffffffffffffffffff166116b7846105f4565b73ffffffffffffffffffffffffffffffffffffffff16145b91505092915050565b8273ffffffffffffffffffffffffffffffffffffffff166116f882610929565b73ffffffffffffffffffffffffffffffffffffffff161461174e576040517f08c379a0000000000000000000000000000000000000000000000000000000008152600401611745906130b9565b60405180910390fd5b600073ffffffffffffffffffffffffffffffffffffffff168273ffffffffffffffffffffffffffffffffffffffff1614156117be576040517f08c379a00000000000000000000000000000000000000000000000000000000081526004016117b590613119565b60405180910390fd5b6117c983838361211e565b6117d460008261158a565b6001600360008573ffffffffffffffffffffffffffffffffffffffff1673ffffffffffffffffffffffffffffffffffffffff1681526020019081526020016000206000828254611824919061345d565b925050819055506001600360008473ffffffffffffffffffffffffffffffffffffffff1673ffffffffffffffffffffffffffffffffffffffff168152602001908152602001600020600082825461187b91906133d6565b92505081905550816002600083815260200190815260200160002060006101000a81548173ffffffffffffffffffffffffffffffffffffffff021916908373ffffffffffffffffffffffffffffffffffffffff160217905550808273ffffffffffffffffffffffffffffffffffffffff168473ffffffffffffffffffffffffffffffffffffffff167fddf252ad1be2c89b69c2b068fc378daa952ba7f163c4a11628f55a4df523b3ef60405160405180910390a461193a838383612123565b505050565b600081600001549050919050565b611955611582565b73ffffffffffffffffffffffffffffffffffffffff16611973610eb0565b73ffffffffffffffffffffffffffffffffffffffff16146119c9576040517f08c379a00000000000000000000000000000000000000000000000000000000081526004016119c0906131d9565b60405180910390fd5b565b6000600660009054906101000a900473ffffffffffffffffffffffffffffffffffffffff16905081600660006101000a81548173ffffffffffffffffffffffffffffffffffffffff021916908373ffffffffffffffffffffffffffffffffffffffff1602179055508173ffffffffffffffffffffffffffffffffffffffff168173ffffffffffffffffffffffffffffffffffffffff167f8be0079c531659141344cd1fd0a4f28419497f9722a3daafe3b4186f6b6457e060405160405180910390a35050565b6000611a9c82610929565b9050611aaa8160008461211e565b611ab560008361158a565b6001600360008373ffffffffffffffffffffffffffffffffffffffff1673ffffffffffffffffffffffffffffffffffffffff1681526020019081526020016000206000828254611b05919061345d565b925050819055506002600083815260200190815260200160002060006101000a81549073ffffffffffffffffffffffffffffffffffffffff021916905581600073ffffffffffffffffffffffffffffffffffffffff168273ffffffffffffffffffffffffffffffffffffffff167fddf252ad1be2c89b69c2b068fc378daa952ba7f163c4a11628f55a4df523b3ef60405160405180910390a4611baa81600084612123565b5050565b8173ffffffffffffffffffffffffffffffffffffffff168373ffffffffffffffffffffffffffffffffffffffff161415611c1d576040517f08c379a0000000000000000000000000000000000000000000000000000000008152600401611c1490613139565b60405180910390fd5b80600560008573ffffffffffffffffffffffffffffffffffffffff1673ffffffffffffffffffffffffffffffffffffffff16815260200190815260200160002060008473ffffffffffffffffffffffffffffffffffffffff1673ffffffffffffffffffffffffffffffffffffffff16815260200190815260200160002060006101000a81548160ff0219169083151502179055508173ffffffffffffffffffffffffffffffffffffffff168373ffffffffffffffffffffffffffffffffffffffff167f17307eab39ab6107e8899845ad3d59bd9653f200f220920489ca2b5937696c3183604051611d0e919061303c565b60405180910390a3505050565b611d268484846116d8565b611d3284848484612128565b611d71576040517f08c379a0000000000000000000000000000000000000000000000000000000008152600401611d6890613079565b60405180910390fd5b50505050565b606060405180602001604052806000815250905090565b60606000821415611dd6576040518060400160405280600181526020017f30000000000000000000000000000000000000000000000000000000000000008152509050611f36565b600082905060005b60008214611e08578080611df1906135b7565b915050600a82611e01919061342c565b9150611dde565b60008167ffffffffffffffff811115611e4a577f4e487b7100000000000000000000000000000000000000000000000000000000600052604160045260246000fd5b6040519080825280601f01601f191660200182016040528015611e7c5781602001600182028036833780820191505090505b5090505b60008514611f2f57600182611e95919061345d565b9150600a85611ea49190613600565b6030611eb091906133d6565b60f81b818381518110611eec577f4e487b7100000000000000000000000000000000000000000000000000000000600052603260045260246000fd5b60200101907effffffffffffffffffffffffffffffffffffffffffffffffffffffffffffff1916908160001a905350600a85611f28919061342c565b9450611e80565b8093505050505b919050565b60008360096000611f4c600761193f565b81526020019081526020016000206000019080519060200190611f70929190612582565b508260096000611f80600761193f565b81526020019081526020016000206001019080519060200190611fa4929190612582565b508160096000611fb4600761193f565b815260200190815260200160002060020160006101000a81548160ff021916908360ff1602179055504260096000611fec600761193f565b81526020019081526020016000206003018190555061200b60076114b7565b6001612017600761193f565b612021919061345d565b90509392505050565b600860008373ffffffffffffffffffffffffffffffffffffffff1673ffffffffffffffffffffffffffffffffffffffff1681526020019081526020016000208190806001815401808255809150506001900390600052602060002001600090919091909150555050565b6120ae8282604051806020016040528060008152506122bf565b5050565b60008073ffffffffffffffffffffffffffffffffffffffff166002600084815260200190815260200160002060009054906101000a900473ffffffffffffffffffffffffffffffffffffffff1673ffffffffffffffffffffffffffffffffffffffff1614159050919050565b505050565b505050565b60006121498473ffffffffffffffffffffffffffffffffffffffff1661231a565b156122b2578373ffffffffffffffffffffffffffffffffffffffff1663150b7a02612172611582565b8786866040518563ffffffff1660e01b81526004016121949493929190612fce565b602060405180830381600087803b1580156121ae57600080fd5b505af19250505080156121df57506040513d601f19601f820116820180604052508101906121dc9190612b29565b60015b612262573d806000811461220f576040519150601f19603f3d011682016040523d82523d6000602084013e612214565b606091505b5060008151141561225a576040517f08c379a000000000000000000000000000000000000000000000000000000000815260040161225190613079565b60405180910390fd5b805181602001fd5b63150b7a0260e01b7bffffffffffffffffffffffffffffffffffffffffffffffffffffffff1916817bffffffffffffffffffffffffffffffffffffffffffffffffffffffff1916149150506122b7565b600190505b949350505050565b6122c9838361233d565b6122d66000848484612128565b612315576040517f08c379a000000000000000000000000000000000000000000000000000000000815260040161230c90613079565b60405180910390fd5b505050565b6000808273ffffffffffffffffffffffffffffffffffffffff163b119050919050565b600073ffffffffffffffffffffffffffffffffffffffff168273ffffffffffffffffffffffffffffffffffffffff1614156123ad576040517f08c379a00000000000000000000000000000000000000000000000000000000081526004016123a4906131b9565b60405180910390fd5b6123b6816120b2565b156123f6576040517f08c379a00000000000000000000000000000000000000000000000000000000081526004016123ed906130d9565b60405180910390fd5b6124026000838361211e565b6001600360008473ffffffffffffffffffffffffffffffffffffffff1673ffffffffffffffffffffffffffffffffffffffff168152602001908152602001600020600082825461245291906133d6565b92505081905550816002600083815260200190815260200160002060006101000a81548173ffffffffffffffffffffffffffffffffffffffff021916908373ffffffffffffffffffffffffffffffffffffffff160217905550808273ffffffffffffffffffffffffffffffffffffffff16600073ffffffffffffffffffffffffffffffffffffffff167fddf252ad1be2c89b69c2b068fc378daa952ba7f163c4a11628f55a4df523b3ef60405160405180910390a461251360008383612123565b5050565b60405180608001604052806060815260200160608152602001600060ff168152602001600081525090565b50805461254e90613554565b6000825580601f10612560575061257f565b601f01602090049060005260206000209081019061257e9190612608565b5b50565b82805461258e90613554565b90600052602060002090601f0160209004810192826125b057600085556125f7565b82601f106125c957805160ff19168380011785556125f7565b828001600101855582156125f7579182015b828111156125f65782518255916020019190600101906125db565b5b5090506126049190612608565b5090565b5b80821115612621576000816000905550600101612609565b5090565b6000612638612633846132bb565b613296565b9050808382526020820190508260005b85811015612678578135850161265e88826127d0565b845260208401935060208301925050600181019050612648565b5050509392505050565b6000612695612690846132e7565b613296565b9050828152602081018484840111156126ad57600080fd5b6126b8848285613512565b509392505050565b60006126d36126ce84613318565b613296565b9050828152602081018484840111156126eb57600080fd5b6126f6848285613512565b509392505050565b60008135905061270d81613a95565b92915050565b600082601f83011261272457600080fd5b8135612734848260208601612625565b91505092915050565b60008135905061274c81613aac565b92915050565b60008135905061276181613ac3565b92915050565b60008151905061277681613ac3565b92915050565b600082601f83011261278d57600080fd5b813561279d848260208601612682565b91505092915050565b600082601f8301126127b757600080fd5b81356127c78482602086016126c0565b91505092915050565b6000606082840312156127e257600080fd5b6127ec6060613296565b9050600082013567ffffffffffffffff81111561280857600080fd5b612814848285016127a6565b600083015250602082013567ffffffffffffffff81111561283457600080fd5b612840848285016127a6565b602083015250604061285484828501612875565b60408301525092915050565b60008135905061286f81613ada565b92915050565b60008135905061288481613af1565b92915050565b60006020828403121561289c57600080fd5b60006128aa848285016126fe565b91505092915050565b600080604083850312156128c657600080fd5b60006128d4858286016126fe565b92505060206128e5858286016126fe565b9150509250929050565b60008060006060848603121561290457600080fd5b6000612912868287016126fe565b9350506020612923868287016126fe565b925050604061293486828701612860565b9150509250925092565b6000806000806080858703121561295457600080fd5b6000612962878288016126fe565b9450506020612973878288016126fe565b935050604061298487828801612860565b925050606085013567ffffffffffffffff8111156129a157600080fd5b6129ad8782880161277c565b91505092959194509250565b600080600080608085870312156129cf57600080fd5b60006129dd878288016126fe565b94505060206129ee878288016126fe565b93505060406129ff87828801612860565b925050606085013567ffffffffffffffff811115612a1c57600080fd5b612a28878288016127a6565b91505092959194509250565b60008060408385031215612a4757600080fd5b6000612a55858286016126fe565b9250506020612a668582860161273d565b9150509250929050565b60008060408385031215612a8357600080fd5b6000612a91858286016126fe565b9250506020612aa285828601612860565b9150509250929050565b60008060408385031215612abf57600080fd5b600083013567ffffffffffffffff811115612ad957600080fd5b612ae585828601612713565b9250506020612af6858286016126fe565b9150509250929050565b600060208284031215612b1257600080fd5b6000612b2084828501612752565b91505092915050565b600060208284031215612b3b57600080fd5b6000612b4984828501612767565b91505092915050565b600060208284031215612b6457600080fd5b6000612b7284828501612860565b91505092915050565b6000612b878383612f62565b60208301905092915050565b612b9c81613491565b82525050565b6000612bad82613359565b612bb78185613387565b9350612bc283613349565b8060005b83811015612bf3578151612bda8882612b7b565b9750612be58361337a565b925050600181019050612bc6565b5085935050505092915050565b612c09816134a3565b82525050565b6000612c1a82613364565b612c248185613398565b9350612c34818560208601613521565b612c3d816136ed565b840191505092915050565b6000612c538261336f565b612c5d81856133a9565b9350612c6d818560208601613521565b612c76816136ed565b840191505092915050565b6000612c8c8261336f565b612c9681856133ba565b9350612ca6818560208601613521565b612caf816136ed565b840191505092915050565b6000612cc58261336f565b612ccf81856133cb565b9350612cdf818560208601613521565b80840191505092915050565b6000612cf86032836133ba565b9150612d03826136fe565b604082019050919050565b6000612d1b6026836133ba565b9150612d268261374d565b604082019050919050565b6000612d3e6025836133ba565b9150612d498261379c565b604082019050919050565b6000612d61601c836133ba565b9150612d6c826137eb565b602082019050919050565b6000612d84601a836133ba565b9150612d8f82613814565b602082019050919050565b6000612da76024836133ba565b9150612db28261383d565b604082019050919050565b6000612dca6019836133ba565b9150612dd58261388c565b602082019050919050565b6000612ded6029836133ba565b9150612df8826138b5565b604082019050919050565b6000612e10601a836133ba565b9150612e1b82613904565b602082019050919050565b6000612e33603e836133ba565b9150612e3e8261392d565b604082019050919050565b6000612e566020836133ba565b9150612e618261397c565b602082019050919050565b6000612e796020836133ba565b9150612e84826139a5565b602082019050919050565b6000612e9c6018836133ba565b9150612ea7826139ce565b602082019050919050565b6000612ebf6021836133ba565b9150612eca826139f7565b604082019050919050565b6000612ee2602e836133ba565b9150612eed82613a46565b604082019050919050565b60006080830160008301518482036000860152612f158282612c48565b91505060208301518482036020860152612f2f8282612c48565b9150506040830151612f446040860182612f80565b506060830151612f576060860182612f62565b508091505092915050565b612f6b816134fb565b82525050565b612f7a816134fb565b82525050565b612f8981613505565b82525050565b6000612f9b8285612cba565b9150612fa78284612cba565b91508190509392505050565b6000602082019050612fc86000830184612b93565b92915050565b6000608082019050612fe36000830187612b93565b612ff06020830186612b93565b612ffd6040830185612f71565b818103606083015261300f8184612c0f565b905095945050505050565b600060208201905081810360008301526130348184612ba2565b905092915050565b60006020820190506130516000830184612c00565b92915050565b600060208201905081810360008301526130718184612c81565b905092915050565b6000602082019050818103600083015261309281612ceb565b9050919050565b600060208201905081810360008301526130b281612d0e565b9050919050565b600060208201905081810360008301526130d281612d31565b9050919050565b600060208201905081810360008301526130f281612d54565b9050919050565b6000602082019050818103600083015261311281612d77565b9050919050565b6000602082019050818103600083015261313281612d9a565b9050919050565b6000602082019050818103600083015261315281612dbd565b9050919050565b6000602082019050818103600083015261317281612de0565b9050919050565b6000602082019050818103600083015261319281612e03565b9050919050565b600060208201905081810360008301526131b281612e26565b9050919050565b600060208201905081810360008301526131d281612e49565b9050919050565b600060208201905081810360008301526131f281612e6c565b9050919050565b6000602082019050818103600083015261321281612e8f565b9050919050565b6000602082019050818103600083015261323281612eb2565b9050919050565b6000602082019050818103600083015261325281612ed5565b9050919050565b600060208201905081810360008301526132738184612ef8565b905092915050565b60006020820190506132906000830184612f71565b92915050565b60006132a06132b1565b90506132ac8282613586565b919050565b6000604051905090565b600067ffffffffffffffff8211156132d6576132d56136be565b5b602082029050602081019050919050565b600067ffffffffffffffff821115613302576133016136be565b5b61330b826136ed565b9050602081019050919050565b600067ffffffffffffffff821115613333576133326136be565b5b61333c826136ed565b9050602081019050919050565b6000819050602082019050919050565b600081519050919050565b600081519050919050565b600081519050919050565b6000602082019050919050565b600082825260208201905092915050565b600082825260208201905092915050565b600082825260208201905092915050565b600082825260208201905092915050565b600081905092915050565b60006133e1826134fb565b91506133ec836134fb565b9250827fffffffffffffffffffffffffffffffffffffffffffffffffffffffffffffffff0382111561342157613420613631565b5b828201905092915050565b6000613437826134fb565b9150613442836134fb565b92508261345257613451613660565b5b828204905092915050565b6000613468826134fb565b9150613473836134fb565b92508282101561348657613485613631565b5b828203905092915050565b600061349c826134db565b9050919050565b60008115159050919050565b60007fffffffff0000000000000000000000000000000000000000000000000000000082169050919050565b600073ffffffffffffffffffffffffffffffffffffffff82169050919050565b6000819050919050565b600060ff82169050919050565b82818337600083830152505050565b60005b8381101561353f578082015181840152602081019050613524565b8381111561354e576000848401525b50505050565b6000600282049050600182168061356c57607f821691505b602082108114156135805761357f61368f565b5b50919050565b61358f826136ed565b810181811067ffffffffffffffff821117156135ae576135ad6136be565b5b80604052505050565b60006135c2826134fb565b91507fffffffffffffffffffffffffffffffffffffffffffffffffffffffffffffffff8214156135f5576135f4613631565b5b600182019050919050565b600061360b826134fb565b9150613616836134fb565b92508261362657613625613660565b5b828206905092915050565b7f4e487b7100000000000000000000000000000000000000000000000000000000600052601160045260246000fd5b7f4e487b7100000000000000000000000000000000000000000000000000000000600052601260045260246000fd5b7f4e487b7100000000000000000000000000000000000000000000000000000000600052602260045260246000fd5b7f4e487b7100000000000000000000000000000000000000000000000000000000600052604160045260246000fd5b6000601f19601f8301169050919050565b7f4552433732313a207472616e7366657220746f206e6f6e20455243373231526560008201527f63656976657220696d706c656d656e7465720000000000000000000000000000602082015250565b7f4f776e61626c653a206e6577206f776e657220697320746865207a65726f206160008201527f6464726573730000000000000000000000000000000000000000000000000000602082015250565b7f4552433732313a207472616e736665722066726f6d20696e636f72726563742060008201527f6f776e6572000000000000000000000000000000000000000000000000000000602082015250565b7f4552433732313a20746f6b656e20616c7265616479206d696e74656400000000600082015250565b7f4e4654206973207468652077617272616e747920706572696f64000000000000600082015250565b7f4552433732313a207472616e7366657220746f20746865207a65726f2061646460008201527f7265737300000000000000000000000000000000000000000000000000000000602082015250565b7f4552433732313a20617070726f766520746f2063616c6c657200000000000000600082015250565b7f4552433732313a2061646472657373207a65726f206973206e6f74206120766160008201527f6c6964206f776e65720000000000000000000000000000000000000000000000602082015250565b7f476976656e204e465420496420646f65736e2774206578697374000000000000600082015250565b7f4552433732313a20617070726f76652063616c6c6572206973206e6f7420746f60008201527f6b656e206f776e6572206e6f7220617070726f76656420666f7220616c6c0000602082015250565b7f4552433732313a206d696e7420746f20746865207a65726f2061646472657373600082015250565b7f4f776e61626c653a2063616c6c6572206973206e6f7420746865206f776e6572600082015250565b7f4552433732313a20696e76616c696420746f6b656e2049440000000000000000600082015250565b7f4552433732313a20617070726f76616c20746f2063757272656e74206f776e6560008201527f7200000000000000000000000000000000000000000000000000000000000000602082015250565b7f4552433732313a2063616c6c6572206973206e6f7420746f6b656e206f776e6560008201527f72206e6f7220617070726f766564000000000000000000000000000000000000602082015250565b613a9e81613491565b8114613aa957600080fd5b50565b613ab5816134a3565b8114613ac057600080fd5b50565b613acc816134af565b8114613ad757600080fd5b50565b613ae3816134fb565b8114613aee57600080fd5b50565b613afa81613505565b8114613b0557600080fd5b5056fea26469706673582212206cd01669ec4846120ab24528322c1698a0e319c8480fcd9c0d14e7567550e14964736f6c63430008010033",
  "linkReferences": {},
  "deployedLinkReferences": {}
}